{
  "contractName": "Voting",
  "abi": [
    {
      "constant": true,
      "inputs": [
        {
          "name": "",
          "type": "uint256"
        }
      ],
      "name": "proposals",
      "outputs": [
        {
          "name": "name",
          "type": "bytes32"
        },
        {
          "name": "voteCount",
          "type": "uint256"
        }
      ],
      "payable": false,
      "stateMutability": "view",
      "type": "function"
    },
    {
      "constant": true,
      "inputs": [],
      "name": "name",
      "outputs": [
        {
          "name": "",
          "type": "string"
        }
      ],
      "payable": false,
      "stateMutability": "view",
      "type": "function"
    },
    {
      "constant": true,
      "inputs": [],
      "name": "totalVoteCount",
      "outputs": [
        {
          "name": "",
          "type": "uint256"
        }
      ],
      "payable": false,
      "stateMutability": "view",
      "type": "function"
    },
    {
      "constant": true,
      "inputs": [
        {
          "name": "",
          "type": "address"
        }
      ],
      "name": "voters",
      "outputs": [
        {
          "name": "voted",
          "type": "bool"
        },
        {
          "name": "vote",
          "type": "bytes32"
        }
      ],
      "payable": false,
      "stateMutability": "view",
      "type": "function"
    },
    {
      "constant": true,
      "inputs": [],
      "name": "website",
      "outputs": [
        {
          "name": "",
          "type": "string"
        }
      ],
      "payable": false,
      "stateMutability": "view",
      "type": "function"
    },
    {
      "constant": true,
      "inputs": [],
      "name": "logo",
      "outputs": [
        {
          "name": "",
          "type": "string"
        }
      ],
      "payable": false,
      "stateMutability": "view",
      "type": "function"
    },
    {
      "inputs": [
        {
          "name": "proposalsNames",
          "type": "bytes32[]"
        }
      ],
      "payable": false,
      "stateMutability": "nonpayable",
      "type": "constructor"
    },
    {
      "anonymous": false,
      "inputs": [
        {
          "indexed": false,
          "name": "voter",
          "type": "address"
        },
        {
          "indexed": false,
          "name": "proposal",
          "type": "bytes32"
        }
      ],
      "name": "Voted",
      "type": "event"
    },
    {
      "constant": true,
      "inputs": [],
      "name": "getProposals",
      "outputs": [
        {
          "name": "",
          "type": "bytes32[]"
        }
      ],
      "payable": false,
      "stateMutability": "view",
      "type": "function"
    },
    {
      "constant": false,
      "inputs": [
        {
          "name": "proposal",
          "type": "bytes32"
        }
      ],
      "name": "vote",
      "outputs": [],
      "payable": false,
      "stateMutability": "nonpayable",
      "type": "function"
    },
    {
      "constant": true,
      "inputs": [
        {
          "name": "voter",
          "type": "address"
        }
      ],
      "name": "hasVoted",
      "outputs": [
        {
          "name": "",
          "type": "bool"
        }
      ],
      "payable": false,
      "stateMutability": "view",
      "type": "function"
    },
    {
      "constant": true,
      "inputs": [
        {
          "name": "voter",
          "type": "address"
        }
      ],
      "name": "getVote",
      "outputs": [
        {
          "name": "",
          "type": "bytes32"
        }
      ],
      "payable": false,
      "stateMutability": "view",
      "type": "function"
    },
    {
      "constant": true,
      "inputs": [
        {
          "name": "proposal",
          "type": "bytes32"
        }
      ],
      "name": "getProposalVoteCount",
      "outputs": [
        {
          "name": "",
          "type": "uint256"
        }
      ],
      "payable": false,
      "stateMutability": "view",
      "type": "function"
    },
    {
      "constant": true,
      "inputs": [],
      "name": "getLeader",
      "outputs": [
        {
          "name": "",
          "type": "bytes32"
        }
      ],
      "payable": false,
      "stateMutability": "view",
      "type": "function"
    }
  ],
  "bytecode": "0x60806040523480156200001157600080fd5b506040516200107338038062001073833981018060405281019080805182019291905050506040805190810160405280601d81526020017f426c6f636b636861696e20446576656c6f70657273204d6f6c646f7661000000815250606060405190810160405280602f81526020017f68747470733a2f2f7777772e66616365626f6f6b2e636f6d2f67726f7570732f81526020017f3539323035373233313137343732320000000000000000000000000000000000815250606060405190810160405280603181526020017f68747470733a2f2f61766174617273332e67697468756275736572636f6e746581526020017f6e742e636f6d2f752f3338373334343831000000000000000000000000000000815250836000808251111515620001a2576040517f08c379a000000000000000000000000000000000000000000000000000000000815260040180806020018281038252601f8152602001807f596f75206d7573742070726f7669646520736f6d652070726f706f73616c730081525060200191505060405180910390fd5b8460009080519060200190620001ba929190620002ab565b508360019080519060200190620001d3929190620002ab565b508260029080519060200190620001ec929190620002ab565b505b815181101562000238576200022a82828151811015156200020b57fe5b9060200190602002015162000244640100000000026401000000009004565b8080600101915050620001ee565b5050505050506200035a565b6005604080519081016040528083600019168152602001600081525090806001815401808255809150509060018203906000526020600020906002020160009091929091909150600082015181600001906000191690556020820151816001015550505050565b828054600181600116156101000203166002900490600052602060002090601f016020900481019282601f10620002ee57805160ff19168380011785556200031f565b828001600101855582156200031f579182015b828111156200031e57825182559160200191906001019062000301565b5b5090506200032e919062000332565b5090565b6200035791905b808211156200035357600081600090555060010162000339565b5090565b90565b610d09806200036a6000396000f3006080604052600436106100ba576000357c0100000000000000000000000000000000000000000000000000000000900463ffffffff168063013cf08b146100bf57806306fdde031461010f57806309eef43e1461019f57806326082e72146101fa5780634c051f141461023f57806362564c4814610272578063893d8f4c146102de5780638d337b8114610309578063a3ec138d14610368578063a69beaba146103d2578063beb0a41614610403578063fb7f21eb14610493575b600080fd5b3480156100cb57600080fd5b506100ea60048036038101908080359060200190929190505050610523565b6040518083600019166000191681526020018281526020019250505060405180910390f35b34801561011b57600080fd5b50610124610556565b6040518080602001828103825283818151815260200191508051906020019080838360005b83811015610164578082015181840152602081019050610149565b50505050905090810190601f1680156101915780820380516001836020036101000a031916815260200191505b509250505060405180910390f35b3480156101ab57600080fd5b506101e0600480360381019080803573ffffffffffffffffffffffffffffffffffffffff1690602001909291905050506105f4565b604051808215151515815260200191505060405180910390f35b34801561020657600080fd5b50610229600480360381019080803560001916906020019092919050505061064d565b6040518082815260200191505060405180910390f35b34801561024b57600080fd5b5061025461067f565b60405180826000191660001916815260200191505060405180910390f35b34801561027e57600080fd5b50610287610720565b6040518080602001828103825283818151815260200191508051906020019060200280838360005b838110156102ca5780820151818401526020810190506102af565b505050509050019250505060405180910390f35b3480156102ea57600080fd5b506102f36107ca565b6040518082815260200191505060405180910390f35b34801561031557600080fd5b5061034a600480360381019080803573ffffffffffffffffffffffffffffffffffffffff1690602001909291905050506107d0565b60405180826000191660001916815260200191505060405180910390f35b34801561037457600080fd5b506103a9600480360381019080803573ffffffffffffffffffffffffffffffffffffffff1690602001909291905050506108e0565b604051808315151515815260200182600019166000191681526020019250505060405180910390f35b3480156103de57600080fd5b506104016004803603810190808035600019169060200190929190505050610911565b005b34801561040f57600080fd5b50610418610ac6565b6040518080602001828103825283818151815260200191508051906020019080838360005b8381101561045857808201518184015260208101905061043d565b50505050905090810190601f1680156104855780820380516001836020036101000a031916815260200191505b509250505060405180910390f35b34801561049f57600080fd5b506104a8610b64565b6040518080602001828103825283818151815260200191508051906020019080838360005b838110156104e85780820151818401526020810190506104cd565b50505050905090810190601f1680156105155780820380516001836020036101000a031916815260200191505b509250505060405180910390f35b60058181548110151561053257fe5b90600052602060002090600202016000915090508060000154908060010154905082565b60008054600181600116156101000203166002900480601f0160208091040260200160405190810160405280929190818152602001828054600181600116156101000203166002900480156105ec5780601f106105c1576101008083540402835291602001916105ec565b820191906000526020600020905b8154815290600101906020018083116105cf57829003601f168201915b505050505081565b6000600460008373ffffffffffffffffffffffffffffffffffffffff1673ffffffffffffffffffffffffffffffffffffffff16815260200190815260200160002060000160009054906101000a900460ff169050919050565b6000600561065a83610c02565b81548110151561066657fe5b9060005260206000209060020201600101549050919050565b60008060008060009250600090505b6005805490508110156106f757826005828154811015156106ab57fe5b90600052602060002090600202016001015411156106ea576005818154811015156106d257fe5b90600052602060002090600202016001015492508091505b808060010191505061068e565b60058281548110151561070657fe5b906000526020600020906002020160000154935050505090565b60608060006005805490506040519080825280602002602001820160405280156107595781602001602082028038833980820191505090505b509150600090505b6005805490508110156107c25760058181548110151561077d57fe5b906000526020600020906002020160000154828281518110151561079d57fe5b9060200190602002019060001916908160001916815250508080600101915050610761565b819250505090565b60035481565b6000600460008373ffffffffffffffffffffffffffffffffffffffff1673ffffffffffffffffffffffffffffffffffffffff16815260200190815260200160002060000160009054906101000a900460ff161515610896576040517f08c379a00000000000000000000000000000000000000000000000000000000081526004018080602001828103825260098152602001807f4e6f7420766f746564000000000000000000000000000000000000000000000081525060200191505060405180910390fd5b600460008373ffffffffffffffffffffffffffffffffffffffff1673ffffffffffffffffffffffffffffffffffffffff168152602001908152602001600020600101549050919050565b60046020528060005260406000206000915090508060000160009054906101000a900460ff16908060010154905082565b6000600460003373ffffffffffffffffffffffffffffffffffffffff1673ffffffffffffffffffffffffffffffffffffffff16815260200190815260200160002090508060000160009054906101000a900460ff161515156109db576040517f08c379a000000000000000000000000000000000000000000000000000000000815260040180806020018281038252600e8152602001807f416c726561647920766f7465642e00000000000000000000000000000000000081525060200191505060405180910390fd5b60018160000160006101000a81548160ff021916908315150217905550818160010181600019169055506005610a1083610c02565b815481101515610a1c57fe5b9060005260206000209060020201600101600081548092919060010191905055506003600081548092919060010191905055507fc78796858497f000f0a77d7f0c624bbaf635bf26239188e8fba52c571db2398d3383604051808373ffffffffffffffffffffffffffffffffffffffff1673ffffffffffffffffffffffffffffffffffffffff16815260200182600019166000191681526020019250505060405180910390a15050565b60018054600181600116156101000203166002900480601f016020809104026020016040519081016040528092919081815260200182805460018160011615610100020316600290048015610b5c5780601f10610b3157610100808354040283529160200191610b5c565b820191906000526020600020905b815481529060010190602001808311610b3f57829003601f168201915b505050505081565b60028054600181600116156101000203166002900480601f016020809104026020016040519081016040528092919081815260200182805460018160011615610100020316600290048015610bfa5780601f10610bcf57610100808354040283529160200191610bfa565b820191906000526020600020905b815481529060010190602001808311610bdd57829003601f168201915b505050505081565b60008060005b600580549050811015610c5e578360001916600582815481101515610c2957fe5b906000526020600020906002020160000154600019161415610c515760019150809250610c5e565b8080600101915050610c08565b811515610cd3576040517f08c379a00000000000000000000000000000000000000000000000000000000081526004018080602001828103825260108152602001807f4e6f20737563682070726f706f73616c0000000000000000000000000000000081525060200191505060405180910390fd5b82925050509190505600a165627a7a72305820ed2d0346be53561f4c400db76bdda3a711c2779b7b5bdfd50b32fb9a44b77b010029",
  "source": "pragma solidity ^0.4.23;\r\n\r\nimport './Stage1.sol';\r\n//import './Stage2.sol';\r\n//import './Stage3.sol';\r\n\r\ncontract Voting is\r\n  Stage1/*,\r\n  Stage2,\r\n  Stage3*/\r\n{\r\n  using SafeMath for uint256;\r\n\r\n  constructor(bytes32[] proposalsNames)\r\n    Stage1(\r\n      'Blockchain Developers Moldova', // name\r\n      'https://www.facebook.com/groups/592057231174722', // website\r\n      'https://avatars3.githubusercontent.com/u/38734481', // logo\r\n      proposalsNames // available proposals\r\n    )\r\n     //Stage2(\r\n     //  1525132800, // start time\r\n     //  1527811200 // end time\r\n     //)\r\n    public\r\n  {\r\n      // @todo your code\r\n  }\r\n\r\n  /** Stage 1 */\r\n\r\n  function getProposals() view public returns (bytes32[]) {\r\n    bytes32[] memory res = new bytes32[](proposals.length);\r\n    for (uint p = 0; p < proposals.length; p++) {\r\n        res[p] = proposals[p].name;    \r\n        }\r\n    return res;\r\n  }\r\n\r\n  function vote(bytes32 proposal) public {\r\n        Voter storage sender = voters[msg.sender];\r\n        require(!sender.voted, \"Already voted.\");\r\n        sender.voted = true;\r\n        sender.vote = proposal;\r\n        proposals[getProposalRef ( proposal )].voteCount++;\r\n        totalVoteCount++;\r\n        emit Voted(msg.sender,proposal);\r\n  }\r\n\r\n  function hasVoted(address voter) view public returns (bool) {\r\n      return voters[voter].voted;\r\n  }\r\n\r\n  function getVote(address voter) view public returns (bytes32) {\r\n      require( voters[voter].voted, \"Not voted\");\r\n      return voters[voter].vote;\r\n\r\n    \r\n  }\r\n\r\n  function getProposalVoteCount(bytes32 proposal) view public returns (uint256) {\r\n    return proposals[getProposalRef ( proposal )].voteCount;\r\n  }\r\n\r\n  function getLeader() view public returns (bytes32) {\r\n    uint winCounter = 0;\r\n    uint Proposal_winner;\r\n        for (uint p = 0; p < proposals.length; p++) {\r\n            if (proposals[p].voteCount > winCounter) {\r\n                winCounter = proposals[p].voteCount;\r\n                Proposal_winner = p;\r\n            }\r\n        }\r\n        return proposals[Proposal_winner].name;\r\n  }\r\n\r\n  /** Stage 2 */\r\n\r\n  // @todo your code\r\n\r\n  /** Stage 3 */\r\n\r\n  // function delegateVote(address delegateTo) public {\r\n  //   // @todo your code\r\n  // }\r\n\r\n  // function approveDelegation() public {\r\n  //   // @todo your code\r\n  // }\r\n}\r\n",
  "sourcePath": "C:\\Users\\anato\\Documents\\GitHub\\workshop_0x0_seed\\contracts\\Voting.sol",
  "compiler": {
    "name": "solc",
    "version": "0.4.23+commit.124ca40d.Emscripten.clang"
  },
  "schemaVersion": "2.0.0",
  "updatedAt": "2018-04-29T11:33:51.509Z"
}